:1000000000000120E917000021180000C90D0000C0
:1000100025180000D90D0000E10D000000000000CF
:100020000000000000000000000000002B1800008D
:100030002D180000000000002F18000031180000EB
:100040003318000033180000331800003318000084
:100050003318000033180000331800003318000074
:100060003318000033180000331800003318000064
:1000700033180000C5470000331800003318000093
:100080003318000033180000331800003318000044
:100090003318000033180000331800003318000034
:1000A0003318000033180000331800003318000024
:1000B00033180000331800000000000000000000AA
:1000C0003318000033180000331800003318000004
:1000D00033180000331800003318000010B5054C29
:1000E000237833B9044B13B10448AFF300800123E4
:1000F000237010BD080C002000000000B4B4000004
:1001000008B5034B1BB103490348AFF3008008BD9A
:10011000000000000C0C0020B4B40000154B002BB4
:1001200008BF134B9D46A3F5803A00218B460F462E
:100130001348144A121A05F0B1FF0F4B002B00D0E0
:1001400098470E4B002B00D0984700200021040058
:100150000D000D48002802D00C4801F06BFA05F0A4
:100160005DFB2000290001F029FB01F060FA00BFCF
:10017000000008000000012000000000B11700008E
:10018000080C002078150020351600000000000043
:10019000063150F8210070470844007B7047043155
:1001A00000EB81004068704710B5044603685B6946
:1001B0009847002383B99A1C54F822001A1D04EBB7
:1001C0008201486054F82200991D44F82100002162
:1001D00044F822100133EDE710BD7047012800D02C
:1001E00070474FF6FF739942FAD12DE9F04F87B06F
:1001F000C2230593BB230493422303935523029305
:10020000C0230193142600960223012211463E4882
:1002100004F0FAFF3D4D00221146284604F00EFB83
:10022000012207213A4804F065FC3A4F3221384652
:1002300004F062FE384C3949204604F029FEDFF80C
:100240000881182319223146404604F097FCDFF854
:10025000FCB05A463249404601F0E7F9DFF8F09029
:1002600001221E21484604F045FC2E4E3021304626
:1002700004F042FEDFF8DCA011223221504604F0E7
:100280005FFB5A462849504601F0CFF94FF0000A6B
:10029000CDF800A0334601224946244805F0B2F8C3
:1002A000CDF800A0434652462146214805F0AAF861
:1002B000CDF800A03B46012215491E4805F0A2F8E2
:1002C000CDF800A02346524629461B4805F09AF86F
:1002D000CDF800A0234652463946184805F092F85A
:1002E000CDF800A0234652463146154805F08AF85D
:1002F000CDF800A02B4652460349124805F082F87B
:1003000007B0BDE8F08F00BFB00C0020680D0020E2
:10031000880D0020D00D0020F00D0020ECA800007A
:1003200059030000AC10002071030000240C0020D1
:10033000380C00204C0C0020600C0020740C0020B5
:10034000880C00209C0C002010100020E0000020F1
:1003500064100020D010002010B50446034B40F874
:100360002C3B00F0A9F8204610BD00BFA0B1000052
:1003700038B504460546094B45F8203B084B036257
:10038000284600F0F5F86B6B1BB104F148009B6840
:100390009847284600F0C4F9204638BDF8A8000068
:1003A0004CA9000008B505F04DF805F06DF8FCE724
:1003B00008B54FF6FF710120FFF710FF08BD38B5F3
:1003C00004460D4600F022FF2946204601F0FCFDC0
:1003D00000F034FF38BD08B50368984708BD0B68C6
:1003E00003607047704738B504460D4600F00EFFB5
:1003F0002946204601F076FF00F020FF38BD38B5D1
:1004000004460D4600F002FF2946204601F0C0FFD9
:1004100000F014FF38BD90F8213003B1704710B5DB
:10042000044601F043F8012384F8213010BD90F810
:10043000213003B9704710B5044601F053F800238A
:1004400084F8213010BD10B5044600F0DFFE94F8AA
:10045000223013B100F0F2FE10BD94F920102046B6
:1004600001F0FEFE2046FFF7D6FF012384F822307C
:10047000F0E710B5044680F82010002380F8213002
:1004800080F8223000234362FFF7DDFF204610BDD5
:1004900010B5044600F0BAFE94F8223013B900F00B
:1004A000CDFE10BD204601F009FF2046FFF7BFFF3B
:1004B000002384F82230F2E710B50446FFF7E8FF86
:1004C000204610BD6FF01500704708B503681B6922
:1004D000984708BD08B503689B69984708BD08B5EB
:1004E00003689B6A984708BD09B1002070476FF008
:1004F00018007047012070476FF0150070476FF0CB
:10050000150070477047000038B504468268C5681A
:10051000016A436A521845EB030300F0EFF8636B7E
:100520002BB104F12800C36813B11B68984738BD8C
:1005300040F23B220149024800F0A8FD1CA900003E
:100540003CA9000010B5044600F0C0F8074B23603A
:1005500000220023C4E908230023A362E36223638B
:100560006363012384F83830204610BD4CA9000095
:1005700030B585B0044600F049FE204600F0C9F8C9
:10058000636B13B194F8383023BB04F128056B4634
:10059000002200925A609A60DA609D4211D0EB68A6
:1005A00013B19B68284698470023A3626B60AB6039
:1005B000EB60039B1BB15B68694628469847039B29
:1005C000EB60039B13B19B686846984700F036FECA
:1005D00005B030BD00F086FFD7E7000038B504460F
:1005E0000546074B45F8283BFFF7C2FF636B13B185
:1005F0009B6828469847204600F092F8204638BD70
:100600004CA9000038B504460546094B45F8283B7F
:10061000FFF7AEFF636B13B19B68284698472046EF
:1006200000F07EF84021204601F0B5F8204638BDA4
:100630004CA9000070B5044615461E4600F0E6FDC4
:10064000204600F066F825626662A06900F078FB3B
:10065000421941EB0603204600F050F800F0EEFD91
:1006600070BD2DE9F04104460E4690461F4600F04D
:10067000CDFD636BF3B104F12805B54211D0EB68F1
:1006800013B19B68284698470023A3626B60AB6058
:10069000EB60F3681BB15B68314628469847F36806
:1006A000EB6042463B462046FFF7C4FF00F0C6FD24
:1006B000BDE8F08194F83830002BDCD000F0F6FE75
:1006C000D9E708B503689B68984708BD10B504468C
:1006D000084B036000220023C0E9022300230361CA
:1006E000436100F057FBA061034900F099FA2046EE
:1006F00010BD00BF60A90000C306000000B583B0B4
:10070000009000F10801806900F0CCFA03B05DF8B8
:1007100004FB08B500F10801806900F0F7FA08BD94
:1007200010B50446024B0360FFF7F3FF204610BDEF
:1007300060A9000008B503681B69012200219847E1
:1007400008BD08B503681B6900221146984708BD1B
:1007500070B505460C46164601F0EAFBB4F1FF3FC2
:1007600000D170BD0021284601F050FC31462846DA
:1007700001F02AFCF5E708B50322FFF7E9FF08BD01
:1007800070B504460D46164601F0D2FBB5F1FF3FA9
:1007900000D170BD94F90030B3F1FF3F10D0A6B185
:1007A000012202FA03F34FF0A042C2F808350121FA
:1007B000204601F02BFC0021204601F005FCE8E773
:1007C00020220649064800F061FC012202FA03F3E8
:1007D0004FF0A042C2F80C35E9E700BF6CA9000059
:1007E000A8A9000008B50022FFF7CAFF08BD4368AA
:1007F000196070472DE9F84F446894F83A30002B9F
:1008000072D1054603685B6898476B681B6A834230
:100810006AD0236AC31AE26803EA020C6346002224
:100820002062A56855498D4257D094F83BE0BEF14F
:10083000000F5BD04FEA4C114FEADC60B1EB0C01CA
:1008400060EB0200460246EAD1564F02304617EBF3
:100850000C0142EB0000870147EA91678E01711A93
:1008600067EB000011EB0C0142EB0000CEF120061B
:10087000AEF1200221FA0EF300FA06F6334320FA15
:1008800002F2134320FA0EF2AEF1200ACEF1200C50
:1008900002FA0EF603FA0AFA46EA0A0623FA0CFCF2
:1008A00046EA0C0603FA0EF7C91B60EB0600A66ABF
:1008B000E76A11EB060840EB0709C4E90A8900263C
:1008C000B14508BFA84508D3013342F10002B8EB97
:1008D000050069EB0601A062E162206B616BC01844
:1008E00042EB010120636163BDE8F88F4FEA4C1AC7
:1008F0004FEADC6BBAEB0C0A6BEB020B4FEA4B21B5
:1009000041EADA514FEA4A2010EB0C0A41EB020BA4
:100910004FEA8B1040EA9A604FEA8A11B1EB0A0A5B
:1009200060EB0B0B1AEB0C0A4BEB020B4FF00009C0
:100930002A464B465046594609F030FE03460A46C1
:10094000A5FB000105FB0211BAEB000A6BEB010BE2
:10095000A16AE06A1AEB01064BEB0007C4E90A67DB
:100960004F4508BFAE42B8D3013342F10002701BBD
:1009700067EB0901A062E162AFE700BF40420F00F0
:100980002DE9F8434468216B606B561A63EB00074E
:100990002569D4E90623BB4208BFB24226D3A36827
:1009A0001F4A93421FD094F83B202AB3A2F1200C97
:1009B000C2F1200307FA02F106FA0CFC41EA0C012D
:1009C00026FA03F3194306FA02F0164E144A0023DE
:1009D00080194FF0000646EB010109F0DFFD85426A
:1009E00004D3054602E0B54200D33546206A2844C8
:1009F000E3681840BDE8F883A3FB068903FB079969
:100A00000848074A002318EB00004FF0000149EBAB
:100A1000010109F0C3FD8542E8D30546E6E700BFC2
:100A200040420F003F420F00824209D98A4203D957
:100A3000884203D901207047012070470020704789
:100A4000884203D98A4203D90020704700207047AA
:100A50000120704770B5456895F83A301BB90446D7
:100A600095F8393003B170BDFFF7C4FE6268536872
:100A70004BB3D2E90C01D3E90023994208BF90425D
:100A800017D22046FFF77CFF06462B6A834214D01C
:100A900023681B69984723685B689847014632467C
:100AA000286AFFF7C1FF0028DDD023685B699847FB
:100AB000D9E723685B699847D5E740F21B120649DE
:100AC000064800F0E3FA286A2B691844EA682368AC
:100AD0001B6910409847C6E7C0A90000E0A90000C4
:100AE000436893F83820002A40F091802DE9F04FB8
:100AF00085B0054693F83A30002B7ED103681B6819
:100B000098472B68DB699847066846B11F246CB18B
:100B10000123A340B34209D0013CE4B2F7E700222D
:100B2000009213463A493B4800F0A0FCD0F804A0DC
:100B3000AAF104031C2B63D807279F407A01FB0E00
:100B4000D21B63F10003590241EAD2515002C2198B
:100B500041F10003990141EA92619001B0EB020872
:100B600061EB030918EB070849F1000918EB0608C7
:100B700049F100093246002318F1FF3049F1FF31F5
:100B800009F00CFD814603916B684FF00008C3F833
:100B900000806B68C3F804802B685B68D5F804B0EC
:100BA0009847CBF820006B6800200021C3E90A01B8
:100BB0006B689E606B6883F83B40012404FA0AFA74
:100BC0006A680AF1FF33D3606B681F616B68C3F812
:100BD0001890039ADA616B68C3E90C016B6883F8BB
:100BE00039806B6883F83A806B6883F83840284610
:100BF000FFF700FE2846FFF72DFF05B0BDE8F08F98
:100C00000022009213460449044800F02FFC70476C
:100C100004AA00000E01048020AA0000050104803F
:100C200038B504460D46FFF75BFF00F0EFFA2946A2
:100C30002046FFF7DCFD00F001FB38BD70B504462F
:100C400000F0E4FA2368DB689847636893F83A2079
:100C5000DAB9012283F8392063685B68C3B12046A2
:100C6000FFF7C8FD65686E68D6E90023D5E90C0179
:100C7000994208BF90420BD3F3686B6063681B68AE
:100C8000002BE9D0B0689847E6E700F0D7FA08E013
:100C90006368002283F839202046FFF7DBFE00F06E
:100CA000CDFA70BD2DE9D84281460C4616461F4646
:100CB00000F0ACFA4846FFF79DFDC4E90067069BCB
:100CC000A360D9F804305B68002243B1D3E9000186
:100CD0008F4208BF864202D31A46DB68F5E7E3601D
:100CE00082B1D4603AB1D9F80430D3E90C23BB42C5
:100CF00008BFB24202D34846FFF7ACFE00F09EFAAE
:100D0000BDE8D882D9F804305C60EBE738B5054619
:100D10000C4600F07BFA6A685368A34205D063B1C1
:100D2000DA68A24207D01346F9E7E3685360284621
:100D3000FFF790FE01E0E268DA6000F07FFA38BD6C
:100D400038B50446FFF7CCFE00F060FA2046FFF706
:100D500051FD6368D3E90C4500F070FA204629463E
:100D600038BD08B5FFF7ECFF08BD000008B5034B20
:100D700000221A7002F01CF908BD00BF14150020F3
:100D800008B502F077F8024B01221A7008BD00BFC7
:100D900014150020004870475CAA000008B5034BFA
:100DA0001B680BB10248984708BD00BFE400002053
:100DB0005CAA000008B591F90C2091F9041001F02B
:100DC00037FE08BD002070474FF0100300F00CB84C
:100DD0004FF0200300F008B84FF0300300F004B8E3
:100DE0004FF0400300F000B8EFF308804FF004012B
:100DF00072460A4201D0EFF309809C46254B1968E0
:100E000002680A60043142680A60043182680A603C
:100E10000431C2680A600431F0C147460F600431F2
:100E20004F460F60043157460F6004315F460F6034
:100E3000043102690A60083142690A60043182693A
:100E40000A600431C2690A600431034620334FF45A
:100E50000076324200D0043375464FF0100635421A
:100E600000D148330C46103C2360EFF309820A603E
:100E70000431EFF308820A60043172460A600431DB
:100E8000EFF314820A606046024B196800F08EF896
:100E9000FEE7000060AC000070B584B0002407E0FD
:100EA000344B53F824202146334800F093F90134A1
:100EB0000C2CF5DD2F498B6C02934B6C01930B6C62
:100EC0000093CB6B8A6B496B2C4800F083F92C4C58
:100ED00021682C4800F07EF9E16AA26AA36AA06A40
:100EE000000C256BE66B029601950090C3F3072377
:100EF000D2B2254800F06EF9A36A13F0800F15D125
:100F00001F4B9B6A13F4004F15D11A4BDB6C13F087
:100F1000080F1AD01D4800F05DF9164B1B6D13F039
:100F2000010F0ED01A4800F055F914E0616B194812
:100F300000F050F9E4E7124B996B174800F04AF9BA
:100F4000E3E7164800F046F905E0154800F042F9DD
:100F5000124800F03FF9074BDB6C13F0040F04D08C
:100F6000104800F037F904B070BD0F4800F032F9B6
:100F7000F9E700BF1815002088AA000098AA000011
:100F800000ED00E0E8AA0000F8AA000068AB00004D
:100F900078AB000048AB000058AB000088AB000005
:100FA0009CAB0000ACAB0000B8AB000030B583B028
:100FB00005460C461B4B0121D3E84F2FC3E8401FC9
:100FC000D2B23AB1002500230093224616492846A2
:100FD00000F04CFA154800F0FDF8302D18D0402DE7
:100FE0001BD0202D04D0124800F0F4F8114D03E07E
:100FF000114800F0EFF8114D114800F0EBF8FFF741
:101000004BFF104800F0E6F8064B00221A70DAE7B2
:101010000D4800F0DFF80D4DEEE70D4800F0DAF86E
:101020000C4DE9E76C15002050AC0000C4AB00008B
:1010300018AC00003D01FF80F0AB00003E01FF80D6
:1010400024AC000030AC000000AC00003F01FF8089
:101050000CAC00004001FF8008B504F00BFC08BD9B
:1010600008B57246FFF7F8FF08BD08B505F066F849
:1010700008BD08B504F0CEFA08BD08B57246FFF702
:10108000F8FF08BD08B504F03FFA08BD00B583B00D
:101090000B46009200220146014800F0E7F900BF2C
:1010A0004401FF8000B583B000F0B0F8112101A821
:1010B000FFF798FB0024032C27DC9DF90420B2F1F4
:1010C000FF3F18D0012393404FF0A042C2F80835EB
:1010D000234800F079FB9DF90420B2F1FF3F0FD0C7
:1010E000012393404FF0A042C2F80C351C4800F099
:1010F0006BFB0134DFE720221A491B48FFF7C6FFCC
:10110000202218491848FFF7C1FF0024032CD1DC26
:101110009DF90420B2F1FF3F18D0012393404FF016
:10112000A042C2F80835114800F04EFB9DF904209A
:10113000B2F1FF3F0FD0012393404FF0A042C2F81D
:101140000C350A4800F040FB0134DFE72022054956
:101150000548FFF79BFF202202490348FFF796FF4F
:10116000F04902006CA90000A8A90000801A06003E
:1011700010B5044600220146022000F0EFFA00F00C
:1011800045F8204605F05CFA02462146022000F0B0
:10119000E5FA00F053F810BD00B5A3B002460B46C7
:1011A000842101A807F08EF80346832806D9084A4F
:1011B0001068CDF8830012798DF88720002B02DCAF
:1011C00023B05DF804FB01A8FFF7D2FFF8E700BFEA
:1011D00064AC00000FB400B583B004A951F8040B4F
:1011E0000191FFF7D9FF03B05DF804EB04B070473D
:1011F000EFF3108313F0010F0CBF012000207047A4
:10120000EFF30580003818BF0120704708B500F0E3
:1012100099FD074B1B68B3F1FF3F03D00133044A2C
:10122000136008BD3F2203490348FFF72FFF00BFAB
:10123000781100206CAC000098AC000008B5054B9C
:101240001B681BB1013B034A136003B108BD00F0EA
:1012500085FDFBE77811002030B58FB00D46041EE8
:1012600000DB254C3022002102A804F017FF019476
:101270000395224B2344012B09D9214B9C4229D0B1
:10128000033B9C4201D0002302E0012300E0012344
:1012900013B3EB6B02936B6B0893FFF7B7FF194A1D
:1012A000136801331360012B1BD0174C01AD0FCD18
:1012B0000FC40FCD0FC40FCD0FC42B682360134B89
:1012C0001B6813B1A4F130009847FFF7B7FF002067
:1012D0000FB030BD0123DBE7129B029301AB0893F3
:1012E000DBE70B4C01AD0FCD0FC40FCD0FC40FCDFD
:1012F0000FC42B682360D8E70101FF80C2FE007F86
:101300004001FF807C110020BC11002080110020D2
:10131000841100202DE9F04104460F4616469846F8
:101320000168C1F34173032B16D08DB2C1F307439B
:101330002A462F48FFF74EFFA5F23115132D11D87D
:10134000DFE805F00C2F34393E48434D10101010E3
:1013500010101010101010524D42E7E7A1682548F8
:10136000FFF738FF3846FFF703FF61682248FFF7B1
:1013700031FF4EB12148FFF7FBFE3046FFF7F8FE84
:1013800041461F48FFF726FFA1681E48FFF722FFCE
:1013900021681D48FFF71EFF1C48FFF71BFFBDE833
:1013A000F081A1681A48FFF715FFDBE7A16819482B
:1013B000FFF710FFD6E7A1681748FFF70BFFD1E74B
:1013C000A1681648FFF706FFCCE7A1681448FFF7AD
:1013D00001FFC7E7A1681348FFF7FCFEC2E7A16859
:1013E0001148FFF7F7FEBDE71048FFF7F3FEB9E736
:1013F000CCAC000020AD0000D0AD0000E4AD00009A
:10140000ECAD0000F0AD000004AE000050AE0000F6
:1014100038AD000048AD000058AD00006CAD0000D4
:1014200080AD000094AD0000A4AD0000BCAD000094
:1014300008B50D4B0121D3E84F2FC3E8401FD2B2AE
:101440000028F6D12AB1FFF7E1FEBFF34F8F20BF8E
:10145000FDE7FFF7D5FE10B9FFF7CAFE08B9FFF7A1
:1014600021FE012000F0E3F8B811002080B582B021
:101470001F460C4C0126D4E84F5FC4E8436FEDB221
:101480000DB1FFF7D5FF88461146CDF800E0049B6B
:101490003A46FFF7E1FE049B3A4641460248FFF711
:1014A00039FFEEE76C150020BC1100200A4BD3E891
:1014B0005F2F0132C3E8512F0029F7D192B202B158
:1014C000704700B583B000230093034A1288034994
:1014D0000348FFF7CBFF00BFF01100206CAE000007
:1014E000230104800B4BD3E85F2F013AC3E8512F4F
:1014F0000029F7D192B24FF6FF739A4200D070479D
:1015000000B583B000230093024A128802490348C1
:10151000FFF7ACFFF011002090AE00002401048022
:101520006FF01C0070476FF0150070470120704786
:10153000002070477047000070B50E461546002425
:10154000AC4205D2315D034801F00CFC0134F7E7F1
:10155000284670BD081300200AB90020704710B556
:101560000C46034801F0AEFB2070012010BD00BF07
:101570000813002038B58DB211F0010F05D10024F9
:1015800015F0100F09D1204638BD084801F02AFC9B
:1015900008B90024F4E70124F2E7044801F042FC12
:1015A0000028F0D044F01004EDE700BF081300203D
:1015B00070B50446084B0360084B1B680BB120460E
:1015C00070BD1546064E3046FFF7F4FB29463046FF
:1015D00001F0FCFAF3E700BF3CAF000074130020F9
:1015E00008130020002070470020704708B5012034
:1015F00000F01DF8074B1B681844074A824203D3CA
:10160000044A106018467047044B0C221A604FF0D1
:10161000FF307047E801002000F000207015002026
:1016200000B9FEE708B5FFF73DFD0120704708B59A
:10163000FFF7F6FF012070477047704708B5FFF7C6
:10164000FBFF08BD08B5FFF7F8FF08BD08B5037834
:1016500003F00303012B10D0037803F00302012AE7
:101660000DD022B943F002030370012008BD40F2FF
:101670009D6204490448FFF709FD0020F6E70020B9
:10168000F4E700BFB0AE0000DCAE000008B50378A0
:1016900003F00302022A07D123F003035BB243F0F5
:1016A0000103DBB2037008BD40F2A66201490248A3
:1016B000FFF7ECFCB0AE0000FCAE00000F4B1B7857
:1016C000BFF35B8F13F0010F01D00D48704710B5C9
:1016D0000A48FFF7BBFF08B9094810BD084C4FF492
:1016E000165208492046FFF763FF0448FFF7CEFF74
:1016F000054A06492046FFF798FFEDE7F411002060
:10170000F811002090AF0000E00000203515000027
:1017100010B50446FFF768FF00B110BD2046FFF783
:1017200061FF0028F9D1FFF7C9FFF6E73F2811DC78
:1017300010B50446084B53F82000B0F1FF3F00D02D
:1017400010BD022CFCDC2046FFF7E2FF024B43F801
:101750002400F5E700207047E800002070B50C4633
:101760001546FFF7E3FF40B10268D6682A462146D6
:10177000B047041E08DB204670BD03F0F5FE0923C8
:1017800003604FF0FF34F6E703F0EEFE64420460BE
:101790004FF0FF34EFE708B504F064F808BD10B56A
:1017A00004460421FFF7F7FF204610BD704770473D
:1017B00008B500F01FFEFFF7FAFF08BD08B5FFF7F8
:1017C000F5FFFEF7EFFD08BD70B50646FFF7E2FA3C
:1017D0000546FFF7C6FA04462846FFF7C2FA031B80
:1017E000B342F9D370BD00000749084A084B9B1A61
:1017F00003DD043BC858D050FBDC06488047064850
:101800008047064800470000C0B40000E000002008
:10181000080C0020FD1A0000C92300001D01000073
:10182000FEE7FEE7FEE7FEE7FEE7FEE7FEE7FEE790
:10183000FEE7FEE71030024B43F82010704700BF70
:10184000000000200F4B1B78062B01D000207047B2
:101850000D4B1B6813F00F0F0BD10C4B1B6803F0E3
:10186000F003302B07D0402B07D0502B07D000209F
:101870007047002070470120704701207047012009
:10188000704700BFE00F00F0E40F00F0E80F00F039
:101890000B4B1B78062B01D000207047094B1B68AF
:1018A00013F00F0F07D1084B1B6803F0F003302B28
:1018B00003D000207047002070470120704700BF10
:1018C000E00F00F0E40F00F0E80F00F00F4B1B7882
:1018D000062B01D0002070470D4B1B6813F00F0F33
:1018E0000BD10C4B1B6803F0F003302B07D0402BBF
:1018F00007D0502B07D000207047002070470120F0
:101900007047012070470120704700BFE00F00F0D2
:10191000E40F00F0E80F00F00B4B1B78062B01D012
:1019200000207047094B1B6813F00F0F07D1084BBD
:101930001B6803F0F003302B03D000207047002019
:1019400070470120704700BFE00F00F0E40F00F087
:10195000E80F00F00F4B1B78062B01D000207047DA
:101960000D4B1B6813F00F0F0BD10C4B1B6803F0D2
:10197000F003302B07D0402B07D0502B07D000208E
:1019800070470020704701207047012070470120F8
:10199000704700BFE00F00F0E40F00F0E80F00F028
:1019A0000B4B1B78062B01D000207047094B1B689E
:1019B00013F00F0F07D1084B1B6803F0F003302B17
:1019C00003D000207047002070470120704700BFFF
:1019D000E00F00F0E40F00F0E80F00F00B4B1B7875
:1019E000062B01D000207047094B1B6813F00F0F26
:1019F00007D1084B1B6803F0F003302B03D0002005
:101A00007047002070470120704700BFE00F00F0D2
:101A1000E40F00F0E80F00F00B4B1B78062B01D011
:101A200000207047094B1B6813F00F0F07D1084BBC
:101A30001B6803F0F003502B03D0002070470020F8
:101A400070470120704700BFE00F00F0E40F00F086
:101A5000E80F00F00F4B1B78062B01D000207047D9
:101A60000D4B1B6813F00F0F0BD10C4B1B6803F0D1
:101A7000F003302B07D0402B07D0502B07D000208D
:101A800070470020704701207047012070470120F7
:101A9000704700BFE00F00F0E40F00F0E80F00F027
:101AA0000F4B1B78062B01D0002070470D4B1B6895
:101AB00013F00F0F0BD10C4B1B6803F0F003302B0E
:101AC00007D0402B07D0502B07D0002070470020B4
:101AD000704701207047012070470120704700BF08
:101AE000E00F00F0E40F00F0E80F00F0014B024AB5
:101AF0001A607047EC0100200090D00308B5FFF792
:101B0000A1FE28B1804B1B68C3F304237F4A1360F6
:101B1000FFF7BEFE10B17E4B7E4A1A60FFF7D6FE7D
:101B200028B17D4B1B68C3F342337C4A1360FFF737
:101B3000F3FE20B17A4AD36823F08073D360FFF7B5
:101B400009FF40B14FF080430022C3F80C21C3F8D5
:101B50001021C3F83825FFF723FF10B1714B032282
:101B60001A60FFF73BFF58B16F4B05221A607833BC
:101B700001221A60703B00221A60043B3F221A6067
:101B8000FFF74AFF002846D04FF08052D2F80414E5
:101B9000664BC3F82015D2F80814C3F82415D2F800
:101BA0000C14C3F82815D2F81014C3F82C15D2F869
:101BB0001414C3F83015D2F81814C3F83415D2F839
:101BC0001C14C3F84015D2F82014C3F84415D2F8F9
:101BD0002414C3F84815D2F82814C3F84C15D2F8C9
:101BE0002C14C3F85015D2F83014C3F85415D2F899
:101BF0003414C3F86015D2F83814C3F86415D2F859
:101C00003C14C3F86815D2F84014C3F86C15D2F828
:101C10004424C3F87025FFF71DFF28B1444B1B680F
:101C200003F04F03434A1360FFF73AFF60B14FF0F0
:101C30008043D3F8003413F0010F05D04FF08043F8
:101C40006FF00102C3F800243B4AD2F8883043F415
:101C50007003C2F88830BFF34F8FBFF36F8F4FF020
:101C60001023D3F80032002B1BDB4FF01023D3F8E6
:101C70000432002B15DBFFF739FF4FF080430122C0
:101C8000C3F818250021C3F804119A604FF080436F
:101C9000D3F80431002BF9D0284B0122C3F840259A
:101CA00008BD264B0122C3F80425244BD3F8003489
:101CB000002BFAD04FF010231522C3F800221F4B3F
:101CC000D3F80034002BFAD04FF010231522C3F8BC
:101CD00004221A4BD3F80034002BFAD0174B002201
:101CE000C3F80425154BD3F80034002BFAD0BFF30A
:101CF0004F8F1149CA6802F4E062114B1343CB6065
:101D0000BFF34F8F00BFFDE72403001040350140B3
:101D100074C007400DF0ADBA440200103C0500400D
:101D2000F0ED00E0A00500401056004000C000406B
:101D300058020010E40E004000ED00E000E0014019
:101D40000400FA0508B5044B1B7803B908BD024826
:101D500001F04EF9FAE700BFF001002008B5034B8F
:101D600001221A70002001F051F908BDF001002095
:101D700008B500F5E0724FF0A04353F82230C3F3EA
:101D80000143032B0BD002210F4B1B68C34013F000
:101D9000010F03D0012904D002290ED008BD012172
:101DA000F2E70A4B1B5C13F0400FF5D0084B1B68A1
:101DB000084A52F820009847F0E7044B1B5C13F0E8
:101DC000200FEBD0F2E700BFA01200207C12002011
:101DD000A4120020FC11002008B50E4B1B68C34064
:101DE00013F0010F09D00C4B1B5C13F0020F05D14F
:101DF000094B1B5C13F0100F08D108BD064B1B5C90
:101E000013F0100FF4D102F059F8F6E702F0B4F92C
:101E1000F3E700BF9C1200207C12002010B582B0B6
:101E200004463F4B1B5C13F0010F04D13C4B1B5C81
:101E300013F0100F6AD03A4B1B5D13F0020F04D061
:101E4000374B1B5D13F0100F4DD09DF8063003F09B
:101E5000FD036FF300038DF8063003238DF8043083
:101E60002F4B1B5DC3F38103012B1AD0032B1CD115
:101E70008DF805302A4B1B5D13F0100F19D19DF81A
:101E80000520920004F5E0734FF0A04141F82320B3
:101E9000012303FA04F4234A13682343136002B0B6
:101EA00010BD01238DF80530E4E700238DF80530DF
:101EB000E0E71D4A01A9204602F066F81B4B1B68AB
:101EC000E34013F0010FE3D0154B1B5D13F0400FFF
:101ED00004D1134B1B5D13F0200FD9D001212046F4
:101EE00002F0BCF8D4E70023ADF804308DF80630DA
:101EF0004FF0A043D3F80435E34003F001038DF81D
:101F0000053001A9204601F077FFC1E7012303FA5C
:101F100000F4044A136823EA04031360BFE700BF18
:101F20007C1200209C120020711D0000A0120020D5
:101F30000170B1F1FF3F17D010B50446C9B21F2997
:101F40000DD80A490620FFF775FC01F00DFF94F942
:101F5000002007498B5C43F001038B5410BD5322D2
:101F600004490548FFF792F8704700BFE5410000BB
:101F70007C120020B8AF000000B0000008B590F956
:101F80000030B3F1FF3F0CD00C4AD25C12F0020FCC
:101F90000CD14FF0A042D2F81005D84000F001005B
:101FA00008BD662206490748FFF770F84FF0A042C7
:101FB000D2F80405D84000F00100F1E77C120020BF
:101FC000B8AF0000A8A9000038B5044690F9000099
:101FD000B0F1FF3F0ED00D46C0B2FFF7FDFE94F901
:101FE0000000074B1A5C65F383021A54C0B2FFF776
:101FF00015FF38BDB22203490348FFF747F800BF79
:102000007C120020B8AF0000A8A9000038B5044633
:1020100090F90000B0F1FF3F0ED00D46C0B2FFF7BF
:10202000DBFE94F90000074B1A5C65F341021A5479
:10203000C0B2FFF7F3FE38BDBD2203490348FFF7E6
:1020400025F800BF7C120020B8AF0000A8A900004E
:10205000014600231B4A12F93320B2F1FF3F0AD098
:102060008A4201D00133F5E7164A02EBC3035868F0
:10207000154B195401E04FF0FF30B0F1FF3F0FD086
:10208000B0F1FF3F1AD0B0F1FF3F19D070470133D4
:10209000022BF5D80C4AD2568A42F8D11846EFE7FF
:1020A0000023F5E70133022BEDD8074AD256B2F1EF
:1020B000FF3FF7D1044AD1541846E4E70023F2E782
:1020C0000220E3E7A8AF0000F401002030B4054689
:1020D000002300E001332E4A12F93340B4F1FF3FF0
:1020E00018D002EBC30292F90120B2F1FF3F0ED0EB
:1020F000AC42EFD18A42EDD1254A02EBC3035868C6
:10210000244B03F8105003EB4003597004E04FF0E8
:10211000FF3001E04FF0FF30B0F1FF3F10D0B0F1E1
:10212000FF3F27D0B0F1FF3F2FD030BC7047194A96
:1021300002EB430292F901208A4209D11846EEE7E8
:102140000023002BEBD1134A12F91320AA42EED040
:102150000133F6E70F4A02EB430292F90120B2F194
:10216000FF3F10D10B4A02F8135002EB43025170AB
:102170001846D7E70023002BD4D1064A12F91320C2
:10218000B2F1FF3FE6D00133F5E70020CDE700BF15
:10219000B0AF0000F801002000B585B020B302798F
:1021A0008DF80420FF228DF805208DF806208DF88B
:1021B000072007228DF8082004228DF8092000222C
:1021C0008DF80A200189ADF80C108DF80E208DF8DD
:1021D0000F20006801A9094B03EBC00002F000FAD0
:1021E00038B905B05DF804FB532205490548FEF7F0
:1021F0004DFF6D2202490448FEF748FFFC01002014
:1022000020B0000068B000006CB0000038B5A0B18C
:10221000044600680E4D05EBC00002F06DFA204642
:10222000FFF7BAFF214651F8100B0223012205EBFC
:10223000C00002F087FA28B938BD73220549064864
:10224000FEF724FF812203490448FEF71FFF00BF69
:10225000FC01002020B0000068B000006CB000005D
:1022600038B5D8B10D4604460846FFF7F1FE0228FE
:1022700019DC2060257147F6FF7323810023E3609A
:10228000A31D23610123A3820023A361E3614FF413
:102290000043E3802046FFF77FFF38BD8D220449CD
:1022A0000448FEF7F3FE922201490348FEF7EEFED2
:1022B00020B0000068B0000084B0000008B530B164
:1022C0000068054B03EBC00002F016FA08BDAE2211
:1022D00002490348FEF7DAFEFC01002020B00000AE
:1022E00068B0000010B507EE101A038907EE903AA7
:1022F000F8EEE77A67EE877AFCEEE77AC38803F4B4
:1023000000431AB217EE903A1BB2002B0FDB1343B7
:10231000C38080ED037A014651F8104B022301225D
:10232000074800EBC40002F00DFA18B910BD47F6DB
:10233000FF73ECE7D02203490348FEF7A7FE00BF76
:10234000FC01002020B000006CB0000010B5B1F519
:10235000004F01DB47F6FF71C28822F4004301FB06
:1023600003F3048993FBF4F302F400421A43C2809E
:10237000018107EE903AB8EE677A07EE901AF8EE10
:10238000E77AC7EE276AC0ED036AFFF73FFF10BD8B
:1023900008B507EE901A9FED0A7AF4EEC77AF1EECF
:1023A00010FA01DDF0EE477A9FED067A67EE877A44
:1023B000FDEEE77A17EE901AFFF7C8FF08BD00BFE1
:1023C000B136063D002474490023362B07D8064A4F
:1023D00052F82310054A42F823100133F5E7034A67
:1023E000034B9A60704700BF00000000000000200F
:1023F00000ED00E000B583B0052101A8FEF7F2F979
:102400009DF90420B2F1FF3F08D0012393404FF023
:10241000A042C2F80C3503B05DF804FB202202494B
:102420000248FEF733FE00BF6CA90000A8A9000017
:1024300008B50A4A00EB800302EBC303002159747C
:1024400000EB800052F830301A6A596A2AB111F054
:10245000020F02D00021D869904708BDDC1200208D
:1024600010B50A49830000EB800201EBC202002490
:102470005473184451F830301A6A596A2AB111F06D
:10248000010F02D00121D869904710BDDC12002055
:1024900010B50B49820000EB800301EBC30300245D
:1024A000DC735C73104451F830301A6B596B2AB1ED
:1024B00011F0040F02D004219963904710BD00BFB2
:1024C000DC12002008B50D4B1B7843B10B4B0022EA
:1024D0001A700B4BDB7B33B11046FFF7D9FF094B6A
:1024E0001B7823B908BD0020FFF7BAFFF7E70020EB
:1024F000044B1870FFF79CFFF4E700BF05130020A2
:10250000DC1200200413002038B9044B01221A7099
:10251000034B4FF48012C3F80021704705130020CD
:1025200000E100E038B9044B01221A70034B4FF46C
:102530008012C3F8002170470413002000E100E07E
:1025400010B50B49820000EB800301EBC3030024AC
:102550001C749C73104451F83030DA6B196C32B132
:1025600011F4807F03D04FF480715964904710BDFF
:10257000DC12002030B482B0124B134AC3F8082397
:102580000021C3F84C11D3F84C210192019AC3F8F1
:102590001011D3F810210092009AD3F8002222F0F3
:1025A0002002C3F80022094A00EB800402EBC404B5
:1025B0000125257484F824101022C3F8042302B0E6
:1025C00030BC70470020004010000800DC120020E2
:1025D0002DE9F04383B000EB8002274B03EBC203ED
:1025E00093F8129089F001029A74244BD3F83C8539
:1025F000B8F1000F29D103B0BDE8F083013747459A
:1026000026D206EB86031C4A02EBC30301A95869D4
:1026100000F0B1FDE0B1184CB50006EB860304EB09
:10262000C303DA194A441279027001A9586900F00B
:10263000AEFDAB19DB001833234453E8001F01390A
:1026400043E80012002AF8D1D8E706460027D6E76B
:1026500006EB8603084A02EBC3035B7C002BCAD15E
:1026600006EB8602044B03EBC20301225A74304688
:10267000FFF758FFBFE700BFDC120020002000403A
:1026800010B5154B00EB800103EBC1018A7C82F091
:10269000010200EB800402EBC402134404330F4A2E
:1026A000C2F834350123C2F83835096AB1F1FF3F69
:1026B0000DD0094A02EBC4039B69032B08D800EB39
:1026C0008000054B03EBC000012380F8243010BDCF
:1026D000084601F047FCFAE7DC1200200020004029
:1026E00010B584B004461F4BD3F8103183B11D4B95
:1026F0000022C3F81021D3F810310193019B00EBA5
:102700008003194A02EBC3031B7C7BB1FFF718FF60
:10271000144BD3F84C311BB1124BD3F8103143B1E9
:10272000104BD3F8203183B904B010BDFFF750FF30
:10273000EEE70C4B0022C3F84C21D3F84C31029346
:10274000029B2046FFF79CFFEAE7064B0022C3F8F6
:102750002021D3F820310393039B2046FFF7D4FEBA
:10276000E2E700BF00200040DC12002008B5002096
:10277000FFF7B6FF08BD000038B500283AD0044680
:102780004368B3F1FF3F0CD0012202FA03F34FF08C
:10279000A042C2F80835436803F5E073032142F80C
:1027A0002310A368B3F1FF3F06D003F5E0734FF0A9
:1027B000A042002142F823106168A2684D4BC3F883
:1027C0000C15C3F81425237D012B19D0216923682A
:1027D00003EB8300484A02EBC002126A914223D104
:1027E000637D227D1343434AC2F86C35A369C2F866
:1027F000243538BD40F24E2240494148FEF746FCA0
:10280000E368B3F1FF3F06D003F5E0734FF0A04259
:10281000002142F82310E268364B4FF0FF31C3F835
:102820000815C3F81025D1E7334A02EBC003187F1F
:1028300001F044FEB0B9236803EB83032E4A02EB98
:10284000C3031B6AB3F1FF3F12D12069B0F1FF3F10
:1028500012D12368216903EB8303274A02EBC303E8
:102860001962BDE740F27B2224492648FEF70EFCA0
:10287000206901F023FBE8E7234901F0BDFA0828AD
:102880001ED028BB236803EB83031B4A02EBC30360
:102890001D7F206901F058FB02461C49284601F0C3
:1028A000D3FDD8B9236803EB8303134A02EBC303B8
:1028B000187F01F0EDFDB8B9206901F033FBC8E7DE
:1028C000206901F0FBFA1049206901F095FAD8E778
:1028D00040F2922209490B48FEF7D8FB4FF42672CA
:1028E00006490848FEF7D2FB40F29B2203490548FF
:1028F000FEF7CCFB00200040DC120020D0B000002E
:1029000068B0000018B100002CB100001021004098
:102910002DE9F04383B0184CDFF86490C4F80893B5
:10292000164F00EB800507EBC505686900F01BFC3E
:102930002023AB610023C4F84C31D4F84C21019220
:10294000019AC4F81031D4F810210092009AD4F8FA
:10295000002242F02002C4F80022AB742A1DC4F801
:1029600034250122C4F838252B7485F82430C4F8A6
:10297000049303B0BDE8F08300200040DC12002087
:102980001000080038B5D0B10446056805EB850293
:10299000234B53F83230834217D02046FFF7ECFE2A
:1029A00005EB85031E4A42F83340002384F82C309F
:1029B00094F82D302BB32846FFF7DCFD38BD4FF4DB
:1029C0003F7218491848FEF761FB90F82C30002B35
:1029D000E3D190F82D3033B905EB8502104901EBB6
:1029E000C202127CA2B9002BE8D005EB85030C4A89
:1029F00002EBC3031B7C002BE0D12846FFF7BAFD96
:102A0000DCE72846FFF784FF084B01221A60D5E770
:102A10002846FFF77DFF054B01221A60CEE700BF75
:102A2000DC120020D0B0000068B0000000200040A0
:102A3000F0B583B0002869D00E4615460446554BC4
:102A40001B78002B36D0534B00221A7001F0CAF9C4
:102A5000002861D050491420FEF7ECFE4F4BE022D5
:102A600083F814234FF48012C3F880211A604C4F6E
:102A7000012321224B49384600F05FFB4A48476159
:102A8000002340F81C3B01F0B5FC002847D14FF073
:102A9000FF33454A1362454AC2F8083344490220CD
:102AA000FEF7C8FE3D4B002283F802230422C3F840
:102AB00080211A6029463046FFF708FB206000EBB2
:102AC0008003394A02EBC302936801339360012B00
:102AD0002BD0B6F1FF3F50D06660B5F1FF3F50D02C
:102AE000A56000236375334AA2614FF0FF32E260B4
:102AF000226123752362304B9C4246D0012384F827
:102B00002C302046FFF73EFF03B0F0BD40F24332C9
:102B10002A492B48FEF7BAFA01F026F99AE74FF452
:102B2000597226492748FEF7B1FA204B0822C3F80C
:102B300000254FF0FF32C3F80C25C3F814254FF0E1
:102B40008052C3F8242500EB8000C0000830164AEC
:102B500010440430C3F844050122C3F8482500217D
:102B6000C3F82011D3F82011019101999A600F4BFD
:102B7000D3F81C31002BFAD0ABE74FF0FF33636082
:102B8000ABE74FF0FF33A360ABE70F4B01221A60B6
:102B9000B4E700BF14020020C524000000E100E0FB
:102BA000CC120020A8120020DC12002000200040DF
:102BB0006D2700000050270008130020D0B000004F
:102BC00068B0000018B100007413002008B580B38D
:102BD0000346B1F5166F32DBB1F5965F39DBB1F51F
:102BE000165F39DBB1F5615F38DBB1F5964F37DB46
:102BF000B1F5E14F36DBB1F5164F35DBB1F5614F7D
:102C000034DBB1F5963F34DBB1F5E13F34DBB1F5B0
:102C1000613F33DB214A914233DDB1F5E12F33DBF4
:102C2000B1F5612F33DB1E4A914233DC4FF0706205
:102C300007E040F20E421B491B48FEF727FA4FF40B
:102C40009E229969914203D09A61012283F82C2037
:102C500008BD4FF41D22F4E7144AF2E7144AF0E7E6
:102C6000144AEEE7144AECE7144AEAE74FF41D026F
:102C7000E7E74FF46B02E4E7114AE2E74FF0EB724B
:102C8000DFE74FF06C72DCE74FF08062D9E74FF07E
:102C9000E862D6E74FF08052D3E700BF8FD0030041
:102CA0003F420F00D0B0000068B0000000B0130039
:102CB0000050270000F03A0000A04E0000C0750050
:102CC00000903A0170B582B0002833D0002280F81D
:102CD0002D200568FFF756FE05EB85021E4B03EB22
:102CE000C2035C69628992B2E3889BB29A42F9D0CE
:102CF00001A9204600F056FA064601A9204600F038
:102D00005DFA05EB8503DB0003F11802124B134457
:102D100053E8001F013143E80012002AF8D105EB07
:102D200085030D4A02EBC30393F8243043B930788E
:102D300002B070BD40F2125208490948FEF7A6F9E8
:102D4000134605EB850203EBC202002182F8241032
:102D5000106A01F007F9EAE7DC120020D0B00000A9
:102D600068B0000030B583B070B30D460468FFF75B
:102D700009FE184BD3F81C31002BFAD0154B00215B
:102D8000C3F81C11D3F81C210192019A124A04EBDA
:102D9000840002EBC000057304EB8404E4000834F3
:102DA00014440434C3F844450122C3F84825C3F849
:102DB0002011D3F82011009100994FF48071C3F8CD
:102DC00004139A6003B030BD40F2435203490448F3
:102DD000FEF75CF900200040DC120020D0B00000BB
:102DE00068B0000010B588B1002280F82D2004687A
:102DF000FFF7C8FD04EB8404074B03EBC4046369CD
:102E00005889DB88C01A18BF012010BD40F26B52F0
:102E100002490348FEF73AF9DC120020D0B0000066
:102E200068B0000008B570B1036803EB83030B4A78
:102E300002EBC3035B7BDBB25BB9094BD3F81C31FC
:102E40004BB1012006E04FF4B16206490648FEF797
:102E50001DF9002008BD0020FCE700BFDC120020A7
:102E600000200040D0B0000068B00000004870476B
:102E700030B1000030B583B0234B1B7863B1234BD6
:102E800000221A601B680093009B214B4FF4803294
:102E9000C3F8082303B030BD01251E4B1D601C4C38
:102EA0004FF48033C4F80833D4F8043523F0030317
:102EB000C4F80435D4F8103523F00F0343F00403AD
:102EC000C4F81035D4F8083543F00303C4F80835C6
:102ED0000022C4F840250D4B1A601B680193019B2A
:102EE0000D490920FEF7A6FC0C4B402283F809236C
:102EF0004FF40072C3F880211A602560084B1D60F2
:102F0000014B1D70C6E700BF7813002040910040C0
:102F100000900040049000409D0D000000E100E0A2
:102F200044900040034B01221A60443BD3F844050F
:102F3000704700BF4490004010B582B00446FEF7D1
:102F400065F90B4BC3F84045D3F8043313F4803FC5
:102F50000AD1084B00221A601B680193019B044BA5
:102F60004FF48032C3F80423FEF768F902B010BDB5
:102F70000090004040910040024B4FF40072C3F8B3
:102F80000021704700E100E0024B4FF48032C3F8AB
:102F9000082370470090004082B0044B00221A6062
:102FA0001B680193019B02B0704700BF4091004035
:102FB00001230B4A13600C3213600A4B4FF480322A
:102FC000C3F80823084B4FF40072C3F88020BFF306
:102FD0004F8FBFF36F8F054B00221A70704700BFF1
:102FE000049000400090004000E100E078130020D1
:102FF00072B6054A1378191E18BF012101700133FA
:1030000013700020704700BF79130020054A137821
:10301000013B137018B9134600221A7062B60020E3
:10302000704700BF7913002010B4034653E8002F07
:10303000A2EB010043E8000494F0000FF6D15DF824
:10304000044B704710B483B050E8013F9CB2C28972
:1030500014448289944228BFA41A0289944202BF70
:10306000BFF32F8F002007E0C4EA030440E80142C9
:10307000002AE9D14FF001008DF807000093009B72
:103080000B609DF8070003B05DF8044B704750E8F3
:10309000012FC2EA024240E80123002BF7D170471A
:1030A00010B483B050E8023F1FFAA3F4C2889442E0
:1030B00002BFBFF32F8F00200DE0C2891444828924
:1030C000944228BFA41AC3EA044440E80242002AFA
:1030D000E8D14FF001008DF807000093009B0B60D2
:1030E0009DF8070003B05DF8044B704750E8022FCD
:1030F000C2EA224240E80223002BF7D1704782B097
:1031000050E8022FC188B2EB324F4FF0000317BFD7
:1031100092B241EA014142EA014104E04268B2EB65
:10312000324F08BF012340E80212002AE8D18DF88F
:1031300007309DF8070002B0704781B110B40C460B
:10314000B2FBF3F103FB112189B251B90460416074
:1031500081608281C38108465DF8044B70470E2070
:1031600070470920F8E708B5FFF7C9FF08B100204C
:1031700008BD1120FCE738B505460C46FFF762FF95
:1031800018B128682388184438BD0020FCE708B52A
:103190000A884B889A4201D0002008BDFFF777FFCC
:1031A0000120FAE738B505460C46FFF779FF18B15C
:1031B00028686388184438BD0020FCE708B50A88F1
:1031C0004B889A4201D0002008BDFFF78FFF0120F5
:1031D000FAE7000038B50546002400E00134032C6E
:1031E00007D8044B53F82430002BF7D028469847D3
:1031F000F4E738BD881300200378013B052B34D851
:10320000DFE803F003061120293100230B7070471B
:1032100001230B7003898B818388CB81C3688B600A
:1032200000230B74704702230B7003898B81838802
:10323000CB81C3688B60837D062B14BF00230123E1
:103240000B74704703230B70C3888B810389CB8178
:10325000C3688B60704704230B70C3888B81002385
:10326000CB818B60704705230B707047884207D273
:103270000368B3F1FF3F01D0012070470020704781
:10328000002070474388033300EB8300704738B554
:1032900004460D46FFF7F6FF854208D3A2884FF695
:1032A000FF739A4205D023882BB1002038BD02203D
:1032B000FCE70120FAE70120F8E7000060B10A4AC4
:1032C000D26882420AD8084A1269824208D310F0B2
:1032D000030F07D10120704700207047002070477E
:1032E0000020704700207047F40B00200023012BC2
:1032F00018D810B403E001339BB2012B0ED803EBB6
:103300008302094C04EB820252688A42F3D202F52E
:1033100080528A42EFD90380002000E00A205DF845
:10332000044B70470A207047B81300208B7D022B96
:1033300004D9CB880289134403330381CA884389A3
:103340009B1A033B43817047F8B50E4600EB8000A3
:10335000134B03EB8000446804F580550868A0B166
:10336000FFF790FF044629462046FFF77FFF0746F8
:1033700098B129462046FFF78AFF012807D0022886
:103380000AD00028EFD1346007E00834EBE720468C
:10339000FFF778FF0446E6E700273846F8BD00BF90
:1033A000B813002070B582B006460D464068FFF79E
:1033B00085FF20B13289174B1B899A4218D0002310
:1033C0002B802B88012B23D80023019301A9288867
:1033D000FFF7BAFF0146B8B1019B9C68326894427E
:1033E000F4D173600B4B1B893381084602B070BD6A
:1033F000326871688B689A42E1D12846FFF776FF00
:10340000B0FA80F14909F0E72B8801332B80D8E727
:103410000021EAE7A0130020F8B51C461D4B1B78DD
:10342000002B32D005460F461646002A2FD034B95D
:10343000052027E000232360A3880133A380A3880D
:10344000012B20D803EB8303134A12F82330002BFF
:10345000F2D12146A088FFF777FF0028EAD0236841
:103460001DB199882A889142F3D11FB119883A88F1
:103470009142EED19B68336023687360074B1B89D0
:1034800033810020F8BD0A20FCE70220FAE705207E
:10349000F8E700BF98130020B8130020A013002005
:1034A0000B4A1389013313810023538013730CE0FB
:1034B00003EB83018A0007498A5CB2FA82F252095F
:1034C000034919448A7201339BB2012BF0D970472A
:1034D000A0130020B813002030B40546002301E0FB
:1034E00001339BB2012B19D80E4A1A44927A002A52
:1034F000F6D00C4A1A440021917203EB83020A4968
:1035000001EB8202D268002AEAD103EB830401EBCB
:103510008404207C0028E3D02B8000E0002030BC15
:10352000704700BFA0130020B8130020044B5B6855
:103530005B880333034A918811FA83F393807047C1
:10354000A0130020F413002030B40B490D680B4B7E
:103550005B880B4803EB8304A200024454680C60B0
:1035600055608C8803EB83039A0010440481022386
:103570008B8030BC704700BFF4130020A0130020E4
:10358000B813002008B5124B1B78072B0AD8DFE8C8
:1035900003F00409090A1016161AFFF781FF0C4BF5
:1035A00001221A7008BDFFF7C1FF094B02221A70F1
:1035B000F8E7FFF7C9FF064B06221A70F2E7044B43
:1035C00007221A70EEE7024B01221A70EAE700BFE9
:1035D000A013002008B501460148FFF7E3FD08BD30
:1035E000E013002008B5064B05221A700549022396
:1035F0008B80002301220968034800F04CFB08BDC2
:10360000A0130020F4130020F40B002008B50D4B8C
:103610005B8803EB83010C4A02EB8102D26872B92A
:10362000084A0421117003EB8303074901EB83016E
:10363000002301224968054800F02DFB08BDFFF773
:10364000D1FFFBE7A0130020B8130020F40B0020EB
:1036500000B583B0002300930823044A0449096895
:10366000044800F0D8FA03B05DF804FB44B1000050
:10367000F4130020F40B002008B5044B07221A7045
:1036800000225A60FFF7E4FF08BD00BFA01300202E
:1036900000B583B00146002300930823034A044881
:1036A00000F0B9FA03B05DF804FB00BF3CB10000C4
:1036B000F40B0020F8B530B90B79032B5DD8DFE8A7
:1036C00003F0071D37422F4B00225A60012005E00E
:1036D00001230B71FFF7BCFF00284ED1F8BD0B464C
:1036E00000EB800292000021995400EB800003EB74
:1036F00080004068FFF7CCFF01230FE00023012B7F
:103700000AD8184603EB83021F4911F82220022A27
:10371000E5D001339BB2F2E700230F20002BDBD171
:10372000184B01221A7000225A6041F61D50D5E74D
:1037300000230B71154902228A800122096814486E
:1037400000F0A9FAC8E700250D71104C2068FFF7BA
:103750009FFF104B5B8826680B4903EB830201EB4C
:103760008202576827605660A68816810222A280CE
:1037700003EB83039340CD54AEE7024B00225A6023
:103780000E20ABE798130020B8130020F41300209C
:10379000F40B0020A013002008B5064B06221A7077
:1037A0005B8803EB83039A00034B13445868FFF7CD
:1037B0006FFF08BDA0130020B813002000B583B030
:1037C00002238375002300930423C218044800F0E9
:1037D00022FA10B903B05DF804FB0E20FAE700BF2F
:1037E000F40B002000B583B0036973B10323837524
:1037F00000230093042300F10C020831054800F077
:103800000AFA20B903B05DF804FB0123EFE70E20AC
:10381000F8E700BFF40B002000B583B001238375E7
:10382000C388002200929B0002690C31044800F01A
:10383000F2F910B903B05DF804FB0E20FAE700BFFF
:10384000F40B002000B583B00378032B0ED00623C1
:10385000837500230093042300F1080219440548EE
:1038600000F0D9F920B903B05DF804FB0523EFE7B8
:103870000E20F8E7F40B002010B582B00C460023B0
:1038800000930423084A0146084800F0C4F940B9EF
:1038900004EB8404064901EB84040123237402B081
:1038A00010BD0E20FBE700BF38B10000F40B002074
:1038B000B813002070B50C468B8A03EB83022B4DA6
:1038C00005EB8205A8B9294A03EB830102EB8101CC
:1038D000496803EB830302EB83031E8901EB860631
:1038E000A37D062B0AD8DFE803F0142C20260B3228
:1038F0003C002846FFF71AFD012614E00F260EE0D3
:103900001B4800234360A36903601A49FFF74AFD7F
:1039100050B331462046FFF751FF06461EB12146FF
:103920002846FFF703FD304670BD31462046FFF7BD
:1039300059FF0646F2E731462046FFF76DFF06467F
:10394000ECE731462046FFF77DFF0646E6E7062313
:10395000A375084B1988064B5868FFF78DFF06467C
:10396000DCE741F61D56DAE70A26DCE7B81300204B
:103970007C130020FC13002010B584B00446002303
:1039800001930293C36800930DF10E016846FFF79F
:1039900009FD10B90A2004B010BD01988388E380A6
:1039A00003882381BDF80E10FFF766FFF3E70000E0
:1039B00030B583B009484268094B19689C88538820
:1039C00003339BB203250570002000909B0001EBA0
:1039D0008401044800F01FF903B030BDA01300209B
:1039E000F4130020F40B002008B5064B191D58886D
:1039F000FFF7AAFC10B1FFF7DBFF08BDFFF706FEDB
:103A0000FBE700BFA013002008B50748FFF764FDDF
:103A100010B1FFF7E9FF08BD044B00221A705A806D
:103A20005A6041F61D50F6E7A2130020A0130020B3
:103A300030BB08B5144B1B7B6BB1134B00221A73C0
:103A4000114B1B78013B062B1CD8DFE803F0070A5B
:103A50000D101B131600FFF795FDF1E7FFF7D4FFDC
:103A600008BDFFF7C1FFFBE7FFF7A2FFF8E7FFF78D
:103A7000CDFDF5E7FFF790FEF2E7FFF7FDFDEFE77D
:103A8000012070470F20EBE7A013002000B585B0A0
:103A9000094B01AA00210630FFF7BEFC38B9064BDE
:103AA00099880298FFF7E8FE05B05DF804FB024B29
:103AB00000221A605A60F7E700140020B0B908B578
:103AC0000B79012B0AD0022B12D00BB10F2008BDAD
:103AD00002230B710846FFF74FFFF8E70846FFF790
:103AE000D5FF0A28F3D141F61D50F0E701207047B9
:103AF00041F61D50EBE7000008B501460148FFF70D
:103B00005DFB08BDE013002008B501210348FFF765
:103B10008BFA003818BF012008BD00BFF013002049
:103B200010B586B0044625E02848FFF753FD284B22
:103B3000186023E02046FFF7BDFD002844D0002395
:103B4000019303930493059341F61D53984239D092
:103B500002901F4C01A92068FFF74EFB01A8FFF758
:103B600039FB002323601948FFF7C6FFFFF7CCFF9E
:103B700050B30024164B1B68002BD5D0144B19688A
:103B80000B78013B052B1BD801A252F823F000BF94
:103B9000353B0000A93B0000A93B0000B13B000001
:103BA000B13B0000B93B00002046FFF783FEC4E7AD
:103BB0002046FFF783FFC0E72046FFF739FFBCE749
:103BC0000F20BCE70020C3E706B010BDB0130020F3
:103BD000B413002008B54068FFF7A2FF08BDC36812
:103BE0008B4206D8114401390369994203D9002058
:103BF0007047002070470120704710F0030F0CBF82
:103C000001200020704743681B68013B0B420CBF3A
:103C100001200020704770B32DE9F04182B00F46BB
:103C200016461C46054642B3D0F80080B8F1000F96
:103C300025D033B343685A68B4FBF2F302FB134355
:103C40000BBB0846FFF7D9FFF8B13046FFF7D5FFA9
:103C5000E8B1224639462846FFF7C1FFC8B1D8F877
:103C60000C80089B00932346324639462846C047BD
:103C700002B0BDE8F0810E2070470E20F8E7082062
:103C8000F6E70920F4E70920F2E71020F0E710201A
:103C9000EEE71020ECE7E0B12DE9F041884614464C
:103CA0001F4605460668B6B1BAB1FFF7ACFFB0B122
:103CB0006B681A6804FB02F241462846FFF78FFF43
:103CC00078B136693B46224641462846B047BDE8B2
:103CD000F0810E2070470820F9E70920F7E710204F
:103CE000F5E71020F3E708B5FDF790FA08BD08B531
:103CF000FDF7A4FA08BD000070B40646154662B18F
:103D0000002365B10824A34218D20E4A52F823209A
:103D1000B2F1FF3F05D00133F5E70823F1E70C24AA
:103D2000F1E758B2074A941984F8300042F823109A
:103D300035B9083B134483F8506001E04FF0FF3081
:103D400070BC704708140020064B4FF0FF3243F858
:103D50002020072804D908381844FF2380F8503061
:103D6000704700BF0814002010B582B0194B93F8BB
:103D7000584064BB23461F2B07D8164A1A44FF211C
:103D800082F830100133DBB2F5E70B2C05D8204662
:103D9000FFF7DAFF0134E4B2F7E70E4A002050657E
:103DA0000D4BE02183F806134021C3F88011196000
:103DB0000A4B18601B680193019B094B4FF00041AF
:103DC000C3F80413012382F8583002B010BD082054
:103DD000FBE700BF0814002000E100E07C61004028
:103DE00000600040034B93F85800003818BF0120D2
:103DF000704700BF08140020F8B52D4B034493F919
:103E00003030B3F1FF3F01D00820F8BD04460D4625
:103E10008B7803BB264B0344FE2283F830206B785B
:103E2000012B3DD00123A3404FF0A042C2F80C3536
:103E300004F5E0724FF0A043032143F8221024FA66
:103E400001F304F007041B4A0120A040D45C0443A2
:103E5000D4540020D9E701220021FFF74DFFB0F133
:103E6000FF3F23D029786A78134E00F5A27056F8E8
:103E7000203023F4981323F4F85346F8203056F8F2
:103E80002070230203F4F853090401F440310B437A
:103E9000120502F4801213433B4346F82030BEE77C
:103EA000A3404FF0A042C2F80835C1E70420ACE7B8
:103EB000081400205C1400200060004038B504465F
:103EC000164B034493F93000C0B2072819D9134B9D
:103ED0001A19FF2182F83010E10804F007000122CE
:103EE00082405433585C02420AD004F5E0744FF02B
:103EF000A040022540F82450585C20EA02025A549F
:103F000038BDFFF721FF054B234493F9303003F50B
:103F1000A273034A002142F82310D8E708140020B6
:103F200000600040064B034493F93030054903F527
:103F3000A27351F8232042F0030241F82320704776
:103F40000814002000600040054B034493F9300042
:103F5000C0B28000C0B200F1804000F5C0407047A0
:103F600008140020074B034493F930301833DBB2B8
:103F70009B00DBB203F1804303F5C04301221A60CA
:103F8000704700BF08140020314B034493F93030D0
:103F9000002B01DB0820704770B504460D46114622
:103FA000AA78C2F34002FFF7A7FEB0F1FF3F4DD061
:103FB000AB7813F0040F16D113F0010F31D04FF08E
:103FC000A04204F5E07152F8213023F0020342F8D8
:103FD0002130E30804F007011E4E012202FA01F12C
:103FE000F25C0A43F254AB7813F0020F22D02B7824
:103FF000194900F5A27051F8202022F4473222F42A
:10400000407241F8202051F82020240204F4F85492
:104010001B0403F440331C43144341F820400020A8
:1040200070BD6A78920004F5E0734FF0A04141F84A
:104030002320CEE708382A78054B184490F85030F2
:1040400043EA821380F850300020E9E70420E7E7D4
:10405000081400205C140020006000402E4B034434
:1040600093F93030072B29DDA3F108022A4B1344C2
:1040700093F95030C3F38113032B13D0012B1BD0C2
:1040800003234FF0A04200F5E07052F8201021F415
:10409000403142F8201052F8201041EA034342F820
:1040A000203070474FF0A042D2F81025C24012F0E5
:1040B000010FE6D10223E4E70223E2E7DAB2072A9E
:1040C00028D870B483B003F1400292B2920092B249
:1040D000124D03F5A27655F8264044F0010445F848
:1040E000264002F1804202F5C042002414601268AA
:1040F0000192019A59B1084A104490F9301052F8CF
:10410000212022B1012202FA03F3C5F8043303B0DF
:1041100070BC7047704700BF08140020006000406A
:10412000134B034493F93030072B0EDD4FF0A043BF
:1041300000F5E07053F8202022F4403243F82020AC
:1041400053F8202043F820207047DAB2072A0DD810
:10415000084A03F5A27052F8201021F0010142F83C
:104160002010012101FA03F3C2F80833704700BFA1
:10417000081400200060004070B50446FFF7D0FF2F
:10418000154B234493F93030DAB2072A05D803F5EA
:10419000A273124A002142F82310E20804F007013A
:1041A00001238B400E49885C03420AD004F5E0707D
:1041B0004FF0A045022645F82060885C20EA030302
:1041C0008B540548044494F93000C0B2FFF7BCFD9D
:1041D000FF2384F8303070BD0814002000600040D8
:1041E0005C140020F0B587B00025059501204FF440
:1041F0008073294603E0400004339BB20131072954
:1042000012D803F1804202F5C0421468012CF2D1A9
:10421000754CD4F804432042EDD000241460126899
:104220000392039A0543E6E7704B1B68012B06D007
:1042300015F0FF0F2FD1002D30DB07B0F0BD6B4A1A
:104240000023136012680492049A45F0004505AA01
:1042500006E04FF0A041D1F8101542F8041B0133DD
:10426000002BF6D0E4E776000134072CE3D8354282
:10427000F9D05D4B04F5A27253F82200C0F304207C
:1042800053F82210C1F30141594B53F82430002B4D
:10429000E9D09847E7E701260024E6E700230093EA
:1042A00013B100252C460BE006AA02EB83024FF067
:1042B000FF3142F8141C0133F2E7032922D0013404
:1042C000032C5BD84A4B234493F95030D9B203F006
:1042D0003F00B3F1FF3FF2D0C20801F0070301260F
:1042E00006FA03F306AE06EBD00616F8146C33425A
:1042F000E5D089093E4E371897F9307056F8277087
:10430000002FDAD003291AD000F5E0764FF0A04C48
:104310005CF82660C6F301460DF1180C624412F8F1
:10432000042C134001D0022E03D0002BC7D1032E42
:10433000C5D1032909D0002FC1D0B847BFE71DF868
:1043400002601E430DF80260DEE7022E14D04FF02B
:10435000020C4FF0A04300F5E07253F8226026F4FF
:10436000403643F8226053F8226046EA0C4643F890
:1043700022600135EDB2DEE78C46EAE7A5B9002DF3
:104380003FF45BAF8DE74FF0A041D1F8101542F834
:10439000041B0133002BF6D0002343B10123002B73
:1043A0007FF44BAF00231BE0002302AAF2E706AA2A
:1043B00002EB830252F8101C52F8042C914201D1F6
:1043C0000133EAE70023EAE706AA02EB830252F888
:1043D000101C42F8041C52F8181C42F8141C01333B
:1043E000002BF1D0CBE700BF006000407C610040B3
:1043F000081400202DE9F0418046114E00250427C5
:1044000007E00020FFF773FCBFB126EA0406013580
:10441000EDB296B10020FFF766FC0124AC402642C5
:10442000EFD0084B1B6814EA0302EAD12343054985
:104430000B6088F800501746E3E73846BDE8F08186
:10444000FFFF0F0064140020B1B110B40C46AAB1F4
:1044500001238340C3F3130191B10B4909680B4257
:1044600010D00A4BA23043F8304003EBC00042604A
:1044700000205DF8044B70470E2070470E20F8E7CF
:104480000720F6E70820F4E76414002000F001405C
:10449000012303FA00F0C0F313031BB1054B1B68A3
:1044A000184204D0044BC3F80405002070470820CC
:1044B000704700BF6414002000F00140012303FA9C
:1044C00000F0C0F313031BB1054B1B68184204D066
:1044D000044BC3F80805002070470820704700BF50
:1044E0006414002000F0014070B485B0002314E093
:1044F000012202FA05F54FF0A042C2F8085504AABD
:1045000002EB840454F8102C02F5E0724FF0A04442
:10451000032544F822500133DBB2032B1DD81C467F
:10452000CA5CFF2A11D022F0800504AE06EB830698
:1045300046F8105C12F0800FDAD1012202FA05F57C
:104540004FF0A042C2F80C55D9E74FF0FF3404AA4F
:1045500002EB830242F8104CDDE7006800230AE01A
:1045600004AA02EB830252F8101C03F5AC7240F867
:1045700022100133DBB2032BF2D905B070BC7047B7
:1045800010B483B002240C714A71096881B112F031
:10459000040F20D1822112F0080F01D041F0200138
:1045A00012F0100F01D021F080010468C4F800134C
:1045B00001680024C1F80441D1F804110191019966
:1045C00012F0800F09D102680121D150002003B000
:1045D0005DF8044B70479221DDE700681844F6E768
:1045E000F0B585B00679414B03EBC6031B79002B70
:1045F00079D104460D463D4F47F83620FFF774FF4A
:1046000023680122C3F8002523686879A9792A89DB
:10461000C3F80C05C3F80415C3F808252268AB7A63
:10462000E97A43EA0123C2F8103522680023C2F870
:1046300000322268C2F800332268C2F81C31D2F876
:104640001C210392039A2268C2F81031D2F810217B
:104650000292029A2268C2F81431D2F8142101920F
:10466000019A2268C2F80431D2F804310093009B09
:1046700057F8363043B32368190B43F307332A79CD
:10468000002B29DB5201D2B203F1604303F56143F1
:1046900083F800232368190B43F30733002B08DB4F
:1046A00001F01F045A090120A0406032104C44F868
:1046B0002200002B08DB01F01F015B09012202FA36
:1046C00001F10B4A42F82310084B03EBC606012305
:1046D0003371002005B0F0BD01F00F015201D2B2DC
:1046E000044B5A54D6E70820F4E700BF68140020B2
:1046F00000E100E014ED00E010B4047903681A0B47
:1047000043F30733002B0DDB02F01F025B0901218D
:1047100001FA02F22033094941F82320BFF34F8FF9
:10472000BFF36F8F03680022C3F80025044B03EB2F
:10473000C4031A715DF8044B704700BF00E100E04C
:104740006814002070B50C4605791D4901EBC501C0
:1047500005682668C5F82065A688C5F82465A6689A
:10476000C5F82865E668C5F82C6505682668C5F8AB
:104770004065A688C5F84465A668C5F84865E4683C
:10478000C5F84C4502F00105066805EB5202C6F873
:10479000142513F0010F05D113F0020203D05DB10F
:1047A000082200E010220468C4F80022DAB22DB119
:1047B0000C23FFF7E5FE70BD0422F4E70823F8E7B9
:1047C0006814002000B583B0074B00221A601B68F4
:1047D0000193019B054BD3F80805054B1B68C0B23C
:1047E000984703B05DF804FB00D1004000D00040C2
:1047F0008014002084B010B5044603A880E80E00A1
:104800009DF82430032B03D0BDE8104004B070475E
:10481000237B33B9E169079A52F82120A260012273
:104820002261022BF0D1E269079B03EB8203186837
:1048300000F07AFDA06001232361E5E770B504462E
:104840000D46164600F074FD002383B91A1D04EBD3
:10485000820100204860991D44F82100991C44F809
:10486000210044F82200E21810730133EDE7034BF6
:1048700023602673E561204670BD00BF54B100007F
:1048800010B503468168426801EB620012F0010F27
:1048900005D054100A591B68D358984710BD1B689F
:1048A000FBE7034607C983E807007047704700002D
:1048B00010B504466030FDF761FB94F96020B2F159
:1048C000FF3F0BD0B0FA80F0400960B1012303FA3A
:1048D00002F24FF0A043C3F8082510BD202206497C
:1048E0000648FCF7D3FB012303FA02F24FF0A04382
:1048F000C3F80C25F1E700BF6CA90000A8A90000CF
:1049000070B48BB004460E46694681E80C0003AAD9
:1049100003C982E8090005AD85E8090007AA82E815
:104920000900099607CA84E80700034BE3602046A4
:104930000BB070BC704700BF6CB1000000000000FD
:104940002DE9F0412DED028B8AB004460F469046CA
:1049500000F0EEFC002383B91A1D04EB8201002055
:104960004860991D44F82100991C44F8210044F83E
:104970002200E21810730133EDE72646284B46F873
:10498000203B3046FBF7DEFD0025204600F8605F47
:104990004146FBF727FF234B049305952B46214AFD
:1049A00021466846FFF7ACFF384605F035FA1AA3F2
:1049B000D3E9002305F0AAFA05F0A0FD08EE100ADD
:1049C0000695079508950995039B1BB15B68694699
:1049D00006A89847039B0993DFED137A68EE277AC0
:1049E00017EE900A05F0F2FD02460B4606A9304686
:1049F000FBF737FE099B13B19B6806A89847039BFA
:104A000013B19B686846984720460AB0BDEC028BFC
:104A1000BDE8F081AFF30080FCA9F1D24D62503FB8
:104A2000F8A80000B1480000002474490C3150F887
:104A3000210070470844007D7047083100EB810079
:104A40004068704710B5044603685B6998470023C7
:104A500012E09A1C54F8221003F1080204EB8202BF
:104A600051609A1D54F8220003F10C0144F8210012
:104A7000002144F822100133022BEAD910BD38B5C9
:104A80000446036C63B1236C012B1ED00023A36189
:104A9000E361236204F13C00FDF770FA206438BD45
:104AA00000F13C052846FDF769FA0028EBD0012308
:104AB000A361E361002323622846FDF75FFAA0604B
:104AC0002846FDF75BFAE060E4E704F13C05284680
:104AD000FDF754FA0028D9D10123A3610022E26135
:104AE00023622846FDF74AFAA0602846FDF746FAF9
:104AF0002061CFE7F8B504460F46164600F018FCD3
:104B0000002312E003F1080504EB8505002068602E
:104B100003F10C0244F822009A1C44F822009A1D6A
:104B200044F82200E21810750133022BEAD9254619
:104B30000A4B45F83C3B002384F83C303946284674
:104B4000FBF719FE2846FDF719FAA0603146284602
:104B5000FBF735FC0123A3612046F8BD80B10000BE
:104B600084B010B402AC84E80E0019B9039BC36191
:104B7000012303625DF8044B04B070472DE9F04156
:104B80000446884617461E4600F0D2FB002080B936
:104B9000031D04EB830200255560821D44F822505A
:104BA000821C44F8225044F8235023181D7301300E
:104BB000EDE7104B236000256562204600F8285F72
:104BC0004146FBF70FFE204600F8295F3946FBF708
:104BD00009FE04F12C0731463846FBF74AFC06492A
:104BE0003846FBF70CFCE561012323622046BDE853
:104BF000F08100BFA0B1000017B7513908B590F996
:104C00002820B2F1FF3F11D0012393404FF0A04282
:104C1000C2F80C3590F92920B2F1FF3F0BD00123E7
:104C200093404FF0A042C2F80C3508BD2022044941
:104C30000448FCF72BFA202201490248FCF726FA27
:104C40006CA90000A8A9000010B5044612492C3038
:104C5000FBF7C9FB94F92820B2F1FF3F11D00123E3
:104C600093404FF0A042C2F80C3594F92920B2F1DC
:104C7000FF3F0BD0012393404FF0A042C2F808350C
:104C800010BD202205490648FCF700FA20220349FE
:104C90000348FCF7FBF900BF3333733F6CA90000F6
:104CA000A8A9000010B5044612492C30FBF79BFB65
:104CB00094F92820B2F1FF3F11D0012393404FF027
:104CC000A042C2F8083594F92920B2F1FF3F0BD079
:104CD000012393404FF0A042C2F80C3510BD2022B2
:104CE00005490648FCF7D2F9202203490348FCF79E
:104CF000CDF900BF3333733F6CA90000A8A90000B1
:104D000010B5044612492C30FBF76DFB94F92820AE
:104D1000B2F1FF3F11D0012393404FF0A042C2F8FF
:104D2000083594F92920B2F1FF3F0BD001239340BD
:104D30004FF0A042C2F8083510BD202205490648B0
:104D4000FCF7A4F9202203490348FCF79FF900BFB0
:104D50003333733F6CA90000A8A9000008B5036AAB
:104D600023B300230362037F332B1FD8DFE803F054
:104D70001A2434441E1E1E1E1E1E1E1E1E1E1E1E15
:104D80001E1E1E1E1E1E1E1E1E1E1E1E1E1E1E1E43
:104D90001E1E1E1E1E1E1E1E1E1E1E1E1E1E1E1E33
:104DA0001F2C3C4700234362FFF728FF08BD002368
:104DB0004362FFF723FFF9E7436A002BF6D1012393
:104DC0004362FFF76FFFF1E7436A002BEED1012347
:104DD0004362FFF767FFE9E7436A012BE6D102234D
:104DE0004362FFF731FFE1E7436A012BDED1022383
:104DF0004362FFF729FFD9E7FFF782FFD6E7FFF706
:104E00007FFFD3E710B404695CB100239C4205D94D
:104E1000C218117F82F81C110133F7E700F58E7379
:104E200083605DF8044B704784B038B5044605A82C
:104E300080E80E009DF82C30012B14D0022B1AD0E4
:104E40004BB104F11C0001F0FBFB01302061BDE817
:104E5000384004B07047069AD4F81C1204F11C00C4
:104E600001F06EFBEDE7089AD4F81C1204F11C0067
:104E700001F066FBE5E704F11C05079804F0EEFF7E
:104E800002460B46D4F81C12284601F059FBD8E71D
:104E900038B504460D4600F04BFA002383B9191DBE
:104EA00004EB810000224260981D44F82020981CE9
:104EB00044F8202044F82120E1180A730133EDE77B
:104EC000054B2360C4F81C520023237784F81C315F
:104ED00001232373204638BDC0B1000084B010B454
:104EE00002AC84E80E00C3698360012303615DF8AE
:104EF000044B04B07047704738B504460D4600F0C7
:104F000017FA002383B9191D04EB810000224260C7
:104F1000981D44F82020981C44F8202044F82120B3
:104F2000E1180A730133EDE7024B2360E561204687
:104F300038BD00BFE0B1000010B4022202600122BF
:104F4000426000210161202484600524C460416125
:104F5000826141F22102C2614FF6FF7202625DF886
:104F6000044B704710B54FF080430024C3F8004154
:104F700001221A6003E00A20FCF726FC013442F209
:104F80000F739C4207DC4FF08043D3F80031002BB5
:104F9000F1D0012010BD0020FCE710B5044620230D
:104FA000436200231F2B04DCE2180021117101333E
:104FB000F8E72046FFF7D6FF00232360204610BD08
:104FC000F0B589B006460F46694681E80C000E9D93
:104FD000404C0023C4F8FC3F0A20FCF7F5FB0123FA
:104FE000C4F8FC3FE9680139994203DD042902DD78
:104FF000042100E00221AB6873626B68354AC2F895
:1050000010350024C2F81445AB6843EA032343EA91
:105010000143A86943EA0063686943EA4063C2F850
:1050200018355523C2F854359DF8003003939DF888
:10503000013004939DF8023005939DF803300693E8
:105040009DF8043007932346994209DD08AA02EB34
:10505000830252F8142CD800824014430133F3E742
:105060001C4AC2F81C4508A901EB830313F8143C41
:10507000C2F824350223C2F83435EB69C2F838355A
:105080002B6AC2F83C3540F20113C2F850362B6847
:1050900003F07F03C2F808350436C2F80465002324
:1050A000C2F82C352B69C2F80C35012F0AD03FB954
:1050B000084B0122C3F830252121C3F800125A60A1
:1050C00009B0F0BD13460022C3F830250322C3F80F
:1050D0000022ECE7001000400023426A9A4216DDED
:1050E00010B4CC5CC21814710133426A9A42F8DCE5
:1050F0000D4B01221A600C4BD3F81031002BFAD063
:10510000094B0022C3F810215DF8044B7047064B91
:1051100001221A60044BD3F81031002BFAD0024B55
:105120000022C3F8102170470010004008B5FFF7B7
:10513000D3FF08BD0E4BD3F80C31012B01D000205A
:1051400070470B4B0022C3F80C21D3F800341BB975
:1051500001230360002070471346426A9A4204DD2F
:10516000C2181279CA540133F7E70120704700BF13
:105170000010004008B5FFF7DDFF08BD84B010B592
:10518000044603A880E80E00E369012B05D09DF8D2
:105190002430012B05D0032B0CD0BDE8104004B007
:1051A0007047069904F1740001F0ECF90123C4F88A
:1051B000B430F2E707980023089A9A4205D9C15CF7
:1051C000E21882F874100133F6E70123C4F8B43012
:1051D000E3E770B5044600F14C0600F1940529465A
:1051E0003046FFF7C7FF10B1A560236B2361D4F8E9
:1051F000B43003B970BD0023C4F8B43004F17401B5
:105200003046FFF793FFF5E72DE9F04383B00446FE
:105210000E461746984600F08BF8002080B9031D13
:1052200004EB830200255560821D44F82250821C45
:1052300044F8225044F8235023181D730130EDE741
:105240002546214B45F8283B2846FFF775FE04F11B
:105250004C094846FFF7A1FE9DF82C3084F8203019
:105260009DF8303084F821309DF8343084F82230B5
:105270009DF8383084F823309DF83C3084F8243091
:10528000C4F82880E7620A9B2363E661AEB9012176
:105290000095636A226A4846FFF792FE0023C4F82D
:1052A000B430032222731F2B09DCE218002182F89C
:1052B000741082F894100133F5E70021E8E72046E6
:1052C00003B0BDE8F08300BF00B2000000207047CB
:1052D000002070470020704784B001A880E80E00CD
:1052E00004B0704770470000024A1368013313602E
:1052F000704700BFDC140020012800D070474FF633
:10530000FF739942FAD110B5044C2046FBF71AF905
:10531000034A04492046FCF788F910BD8814002090
:10532000E0000020DD05000070474160704700008C
:1053300010B50446084B0360084B1B684BB1084B83
:10534000186810B12146FFF7F0FF054B1C6020469E
:1053500010BD024B1860F2E720B20000C814002014
:10536000D41400204068704730B58DB00446006802
:1053700003681B6861689847002828D005462068A4
:1053800003685B6861689847E36805938DF82C00B3
:105390000A950023069300230793184B08930328CC
:1053A00009D8DFE800F00216241D206803689B6816
:1053B000616898470690A4682368DD680CAB13E920
:1053C0000F008DE80F0005AB0ECB2046A8470DB0AF
:1053D00030BD206803689B68616898470890EAE7D9
:1053E000206803689B68616898470990E3E7206834
:1053F00003689B68616898470790DCE768AC000029
:105400000161704710B50446016042608360029BF1
:10541000C36000230361084B1B684BB1074B18683E
:1054200010B12146FFF7ECFF044B1C60204610BD75
:10543000014B1860F2E700BFCC140020D01400200C
:105440000069704700B585B000230B4A13600193D3
:1054500002930A4B00930A4B03934FF47A72002392
:1054600069460848FBF7FDF8039B13B19B68684643
:10547000984705B05DF804FBDC140020E9520000F9
:1054800010A900008814002038B50025164B1B68B1
:105490003BB3164A1268002AF8D1154A1468002C4A
:1054A000F4D0124A01211160013B0F4A13600D44F0
:1054B0003CB12046FFF758FF2046FFF7C1FF0446E6
:1054C000F6E70C4B1C6844B123681B6920469847DB
:1054D0002046FFF747FF0446F5E7044B00221A6019
:1054E000D4E7284638BD00BFDC140020D8140020C3
:1054F000CC140020C814002008B54FF6FF7101201D
:10550000FFF7FAFE08BD000010B502FB01F1FBF742
:10551000A7FD044668B150F8042C22F00302043AB7
:10552000242A18D8132A06D802460023C2E90033D9
:105530009360204610BD00231B2AC0E900330FD919
:10554000242AC0E902330ABFC0E9043300F1100283
:1055500000F11802E9E7002100F0A0FD204610BD8F
:1055600000F10802E1E700BF014B1868704700BF77
:1055700018020020F8B5244F0C460646FCF75EF8EA
:10558000BB685D68C4F57E610F3125F003054B19DA
:1055900023F47F6323F00F03A3F58054B4F5805FF9
:1055A00007DB0021304600F0B9FFBB682B4498426E
:1055B00004D03046FCF746F80020F8BD6142304682
:1055C00000F0ACFF01300DD0104AB96813682D1BF4
:1055D00045F0010530461B1B4D601360FCF732F8A7
:1055E0000120F8BD0021304600F098FFBA68831A08
:1055F0000F2BDEDD064C0549246843F00103001B38
:1056000053600860D5E700BF48060020E014002082
:10561000500A002000295ED0F8B50C460646FCF77B
:105620000DF854F8043CDFF8F0C123F00101A4F1B7
:1056300008004218DCF808705568974225F0030509
:1056400000F08880DF07556033D454F8087CC01B15
:105650000CF108048368A342394469D05719D0F883
:105660000CE07F68C3F80CE0CEF80830FB0740F18F
:10567000968041F0010343601160B1F5007F33D2A1
:10568000CB08DCF8044001334A0901219140214351
:105690000CEBC3025CF83340CCF80410083AC0E9C4
:1056A00002424CF83300E0603046BDE8F840FBF7BA
:1056B000C9BF53195B68DF070ED429440CF10804F5
:1056C0009368A34273D0D468DC6041F00102A36008
:1056D00042604150D1E7704741F00103B1F5007FCE
:1056E00044F8043C1160CBD3B1F5206F4FEA51234D
:1056F0004AD28B0903F13905ED0003F138025CF859
:1057000005300CEB0504083C9C4259D05A6822F045
:1057100003028A4202D99B689C42F7D1DC68C0E947
:105720000234A060D8603046BDE8F840FBF78ABF7D
:1057300053195B68DB0766D4D2E90223294441F0A0
:105740000104D3609A60446041503046BDE8F8409F
:10575000FBF778BFDB07294407D454F8083CC01A8C
:105760001944D0E90223D3609A60294B1B6841F0A9
:1057700001028B424260CCF8080095D8254B304698
:105780001968FFF7F7FE8FE7142B0AD9542B21D89D
:105790000B0B03F16F05ED0003F16E02AFE7294437
:1057A0008EE703F15C05ED0003F15B02A7E741F032
:1057B0000103CCE90400C0E902444360415073E7AF
:1057C000DCF804109210012505FA02F20A43CCF825
:1057D0000420A4E7B3F5AA7F06D8CB0B03F1780524
:1057E000ED0003F177028AE740F25452934206D863
:1057F0008B0C03F17D05ED0003F17C027FE74FF494
:105800007E757E227BE741F00103436011604BE728
:10581000540A0020101500204806002070B50D4ED7
:105820000D4D761BB61006D0002455F8043B01340C
:105830009847A642F9D1094E094D761B05F04AF862
:10584000B61006D0002455F8043B01349847A64210
:10585000F9D170BDC80B0020C80B0020D40B00206C
:10586000C80B0020024B01461868FBF706BC00BFBE
:10587000180200202DE9F04F01F10B05162D83B021
:10588000064624D8102900F2B780FBF7D7FE102572
:1058900002211823DFF8F0844344A3F108025C6876
:1058A000944200F0B580636823F003032344D4E9F5
:1058B00002515A68E96042F0010230468D605A6038
:1058C000FBF7C0FE0834204603B0BDE8F08F35F08A
:1058D000070500F19180A94200F28E80FBF7AEFE31
:1058E000B5F5FC7FC0F090816B0A00F08C80042B32
:1058F00000F26681AB0903F1390103F13807CB00EF
:10590000DFF884844344A3F108005C68A04206D118
:105910000CE0002A80F22281E468A04206D063688D
:1059200023F003035A1B0F2AF3DD3946D8F8104041
:10593000DFF858C4644577D0626822F00302531B35
:105940000F2B00F36F81002BC8E904CC80F260813B
:10595000B2F5007F80F01081D30801335009012295
:105960008240D8F8040058F83370A76008EBC30EE3
:105970000243AEF10800E060C8F8042048F8334064
:10598000FC608B1001209840904254D8104206D100
:1059900021F003014000104201F10401FAD008EBAC
:1059A000C1094C468E46E768BC4207D114E1002B82
:1059B00080F21B81FF68BC4200F00E817A6822F001
:1059C0000302531B0F2BF2DDD7E902E4791945F0EE
:1059D00001057D6043F00105CEF80C403046C4F867
:1059E00008E0C8E90411C1E902CC4D60BB50FBF7E7
:1059F00029FE07F1080402E00C233360002420464E
:105A000003B0BDE8F08F4FF4007340213F2777E7E4
:105A1000DC68A34208BF02317FF445AFD8F81040DC
:105A2000DFF868C3644587D1D8F804208B100120C3
:105A300098409042AAD9D8F80840676827F0030731
:105A4000BD4202D87B1B0F2B77DCDFF84493CA4B97
:105A5000D9F800201B6801322B4404EB070A00F040
:105A60002E8103F580530F3323F47F6B2BF00F0B44
:105A70005946304600F052FD411C024600F0EB80D2
:105A8000824500F2E680BD4B19685944196008460A
:105A900000F04B81D9F80010019301311BBFA2EB3C
:105AA0000A0A5044C9F80020186012F0070A00F0F2
:105AB0001481CAF108010A44CAF58051934408319F
:105AC000A1EB0B01C1F30B0949463046009200F0EF
:105AD00025FD421CDDE9002300F05C81801A00EB0B
